:020000040800F2
:1000000090050020D5000008711B00089317000818
:1000100000000000000000000000000000000000E0
:10002000000000000000000000000000751B000838
:100030000000000000000000731B0008771B000890
:100040000501000805010008050100080501000878
:100050000501000805010008050100080501000868
:100060000501000805010008050100080501000858
:100070000501000805010008050100080501000848
:100080000501000800000000000000000501000854
:100090000000000005010008F51B0008050100082C
:1000A0000000000005010008050100080501000826
:1000B0000501000800000000050100080501000816
:1000C0000348854600F0BCF900480047ED220008CF
:1000D000900500200C4880F308880C480168090E40
:1000E0000B4A914205D10B480B4901600B480C4962
:1000F00001600C4880470C480047FEE7FEE7FEE73A
:10010000FEE7FEE7FEE70000900500200400000087
:100110001F00000018100240010000000000014014
:1001200000000000F31B0008C100000830B50B46BA
:10013000014600202022012409E00D46D5409D42C1
:1001400005D31D469540491B254695404019154647
:10015000521E002DF1DC30BDF0B51FB40646002064
:1001600082B005464024019100901BE0019922468F
:100170000F46304600F020F8049A059B801A9941FA
:1001800010D310461946224600F008F9361A8F415E
:100190000197224601200021009F00F0FFF8381847
:1001A0004D4100902046641E0028DFDC019B009832
:1001B0002946324607B0F0BD10B5202A04DB0846B8
:1001C000203AD040002110BD0B46D340D04020241F
:1001D000A21A91400843194610BDD2B201E0027044
:1001E000401C491EFBD270470022F6E710B51346AB
:1001F0000A4604461946FFF7F0FF204610BDF8B541
:1002000002464A40D40F42004B0052085B089A4213
:1002100002D20246084611464A0023D0C30D4A00C6
:10022000DDB2120EAD1A202D35DA49020126490A37
:10023000F6058A19002C00D0524220214F1B11468E
:10024000B9402A411018C20D9A4221D0002C17D073
:10025000012D08DCDA05801AD20F8019D207DBB233
:1002600000F0B4F8F8BDDA05801A012340001B063F
:10027000C01880185A428018CA0F1043490007E07E
:100280004908C2071143DA05801A8019400880180E
:1002900000F094F8F8BD61000122511A001BF7E745
:1002A0000122D2075140AAE70122D2075040A6E717
:1002B000024670B54A40D30FDB0740002DD04A00FC
:1002C0002AD0010E140E000212020919400A520A25
:1002D0008418E50104465443000A120A2E045043D0
:1002E000A4194219200CC543AA18120C0125AD030C
:1002F000521C521912047F39240400D0521C10439E
:1003000001D44000491EC2B20C06C0092018401C8E
:100310004008802A02D003E0002070BD4008400061
:10032000002900DA0020184370BDC217C10F5040E9
:1003300010B54018CA079623002100F047F810BDF9
:10034000C20F410040020123400ADB05D207090E1B
:10035000C0187F2901DA00207047962903DC962314
:10036000591AC84001E096398840002AF4D040422A
:10037000704700000122D207002800DB101A002974
:1003800000DB511A814270470122D207002800DBAE
:10039000101A002900DB511A8842704710B5202A34
:1003A00004DB0146203A9140002010BD91402023FB
:1003B0009C1A0346E3401943904010BD002904DA1B
:1003C000401C490001D140084000704770B400242F
:1003D000050C05D11024000402D1002921D01124DC
:1003E000050E01D100020834050F01D10001241DC2
:1003F000850F01D18000A41C002801DB4000641C93
:10040000002908D020252E1B0D46F540A14000D024
:1004100001212943084301061B1B000ADB1D02D5ED
:10042000002070BC7047DB05181880180029F8DA26
:10043000401C4900F5D170BC4008400070470000E6
:10044000064C0125064E05E0E36807CC2B430C3C27
:1004500098471034B442F7D3FFF736FE5C2F0008FC
:100460007C2F000872B6FEE770B5044600F0DAF89B
:100470000546601C02D004480078241800F0D2F829
:10048000401BA042FAD370BD24000020F8B5002321
:1004900003240125B5E02E469E40B44632407CD070
:1004A0000E79B607B60F012E01D0022E17D186683D
:1004B0002746B6465E00B74000967646BE43B6462F
:1004C000CF68009EB74076463743876046686746E8
:1004D000BE430F79FF06FF0F9F40374347600E79F9
:1004E000F643B6070ED0C6682746B4465E00B64649
:1004F000B7406646BE43B4468F687646B740664608
:100500003743C7600E79B607B60F022E14D1DE0846
:10051000B60036180096366A5F07B446FE0E0F27FF
:10052000B646B7406646BE43B4460F697646B74006
:1005300066463743009E376206682746B4465E002B
:10054000B646B7406646BE430F79B446BF07BF0FF5
:100550007646B7406646374307604E68B603B60F27
:100560004ED02B4FBE692E43BE61BE699F08F60771
:10057000F60F284EBF00BE190096B6680F27B44686
:100580009E07360FB646B7406646BE430927FF06AC
:10059000B446B84202D100270BE031E01E4FB8420A
:1005A00001D1012705E01D4FB84201D1022700E02B
:1005B00005277646B74066463743009EB760184E1B
:1005C00036684F689643FF0300D51643144F3E60CC
:1005D0007E684F689643BF0300D51643104F7E6078
:1005E000BE684F689643FF0200D516430C4FBE60AD
:1005F000FE684F689643BF0200D51643084AD6608E
:100600005B1C0A681646DE4000D044E7F8BD0000D7
:1006100000100240000001400004004800080048AB
:100620000004014001488068704700002400002059
:1006300070B5024640325378202B1CD11378012B21
:1006400019D00123137024245470046825689D4335
:100650002560046825681E03B54325600468256885
:100660000D43256000680168194301602020507027
:100670000020107070BD022070BD70B5024640327F
:100680005378202B1BD11378012B18D00124147020
:100690002423537003681D68A5431D6005682B68FB
:1006A0000F263602B3430902194329600068016826
:1006B00021430160202050700020107070BD022086
:1006C00070BD000070B5040006D02546403568783E
:1006D0000026002802D005E0012070BD2E702046C3
:1006E00000F0F0F82420687020680168490849008B
:1006F00001600F216068090688432168086121684C
:100700008A680120C00382438A60E1680129A168E8
:1007100008D021229202114322689160E1680229E7
:1007200002D005E00143F7E701212268C9025160C8
:1007300021684A680F4B1A434A602168CA6882439D
:10074000CA60616920690843A169090208432168F8
:10075000C860216AE0690843216808602068016870
:100760000122114301606664202068702663AE7028
:10077000002070BD00800002FFB5054604464035EC
:10078000687883B0202872D10C98002814D00D9876
:10079000002811D02878012869D001202870FFF79F
:1007A00041FF0746012200901923D103204601F0A2
:1007B0008BF8002871D103E00120400260646CE0F6
:1007C000212068704020A870002666640C98606242
:1007D0000D98608566630E980090019704A90EC974
:1007E000204601F02DF8002801D02E7055E0608DD4
:1007F000FF2805D9FF22228501231B06009606E06B
:10080000608D20850096208D0123C2B25B062046B4
:10081000049901F045F83A4620460E9901F0A1F8F6
:1008200000283AD1606A216800788862606A401CBA
:100830006062608D401E6085208D401E80B22085E4
:10084000618D00291FD000281DD100970022802132
:1008500020460E9B01F038F800281ED1608DFF283D
:1008600006D9FF22228501231B06009607E024E01B
:10087000608D20850096208D0123C2B25B06204644
:10088000049901F00DF8608D0028C4D13A46204645
:100890000E9901F040F8002802D0012007B0F0BD09
:1008A00020682021C16120684268054B1A404260DF
:1008B0006970AE702E700020F0E70220EEE70000B5
:1008C00000E800FE10B586B0044614216846FFF724
:1008D0008BFC13492068884220D1124C61690120A9
:1008E00040040143616161690140032005914002B8
:1008F0000090122001900020029003200390042019
:10090000049009206946C006FFF7C0FDE169012097
:1009100040050143E161E1690140059106B010BD68
:100920000054004000100240024881680278891893
:10093000816070472400002010B50648016810222D
:1009400011430160032000F007F800F027F80020B1
:1009500010BD00000020024070B504460D4D7D2002
:100960002978C000FFF7E2FB01460B480068FFF75B
:10097000DDFB00F093FB002809D1042C07D20022F4
:100980002146401E00F02AF800206C6070BD012056
:1009900070BD0000240000203000002008B5084889
:1009A0008169012211438161816911400091C2690D
:1009B00001040A43C261C0690840009008BD0000FC
:1009C00000100240002805DBC106C90E0120884046
:1009D000014908607047000000E100E010B501F037
:1009E0006FFA10BDF8B5044600683E4DC00352D5FD
:1009F000E8690026C00007D4E96928040143E961D9
:100A0000E96901400126009137480168C90510D401
:100A10000168821511430160FFF704FE074604E0F8
:100A2000FFF700FEC01B642824D82F480068C005CB
:100A3000F6D5286A03273F02384020D06168394044
:100A400081421CD0286A2A6AB843012109040A435A
:100A50002A622A6A8A432A622862C0070FD0FFF7F7
:100A6000E1FD009008E0FFF7DDFD0099411A1F4805
:100A7000814201D90320F8BD286A8007F3D5286A8E
:100A80006168B84308432862002E04D0E969012058
:100A900000078143E9612078C00705D0286BA16871
:100AA00080088000084328632078800605D5286BDD
:100AB00010218843E168084328632068800305D536
:100AC000286B80218843616908432863208840059A
:100AD00005D5286B402188432169084328630020FD
:100AE000F8BD0000001002400070004088130000B4
:100AF000F8B50F4606005FD03D4D2868C007C00F0F
:100B0000B84209D228684008400038432860286865
:100B1000C007C00FB8424FD13068364C81070CD5A2
:100B2000400704D5606807210902084360606068D7
:100B3000F0218843B168084360603078C0072CD04A
:100B40007068012810D0022811D0032812D0216823
:100B50008907002930DA61688908890001436160EA
:100B6000FFF760FD009011E021688903F1E721683B
:100B70008901EEE7616BC903EBE7FFF753FD0099CD
:100B8000411A1D48814201D90320F8BD60680C213B
:100B90000840716889008842EFD12868C007C00FFB
:100BA000B8420BD9286840084000384328602868BC
:100BB000C007C00FB84201D00120F8BD307840070F
:100BC00006D56068072109028843F1680843606020
:100BD00000F018F86168094A0906090F515CC8401D
:100BE000074908600320FFF7B7FE0020F8BD0000AA
:100BF0000020024000100240881300004C2F000823
:100C00003000002030B519A30FCB89B06C460FC45B
:100C10001AA30FCB0FC41D4A51680C200B4603408A
:100C20001B48042B05D01B4D082B04D00C2B00D1E6
:100C3000284609B030BD8B021B0F6C46E45CD26ABB
:100C400004AB1207120FC9039A5C890F022901D065
:100C5000032901D0002301E0002328460021FFF7EB
:100C60007BFA214601F014F9E3E7000002030405D2
:100C7000060708090A0B0C0D0E0F101001020304E1
:100C800005060708090A0B0C0D0E0F100010024094
:100C900000127A00006CDC02FEB5040070D02078EF
:100CA000F94EFA4DC00748D068680007800F012848
:100CB0001FD068680007800F022804D16868C0034D
:100CC000800F022815D06168012919D00120800405
:100CD000002901D0052917D02968B1432960296866
:100CE00081432960606800281BD0FFF79BFC074602
:100CF00013E02868800320D560680028CED01CE06F
:100D0000286830432860EDE7296801432960F7E748
:100D1000FFF788FCC01B642870D828688003F7D5CB
:100D20000BE0FFF77FFC074604E0FFF77BFCC01BEE
:100D30006428F1D828688003F7D4207880073FD54D
:100D400068680007800F14D068680007800F0228C9
:100D500004D16868C003800F01280AD0E068002829
:100D600028681ED0012108432860FFF75BFC074676
:100D70000CE0286880070CD5E068012800D108E065
:100D800080E1FFF74FFCC01B0228C5D82868800708
:100D9000F7D52868F82188432169C90008432860ED
:100DA0000EE0400840002860FFF73CFC074604E0E6
:100DB000FFF738FCC01B0228AED828688007F7D49C
:100DC0002078000723D5E0690028686A0FD0012148
:100DD00008436862FFF726FC074604E0FFF722FCA1
:100DE000C01B022898D8686A8007F7D50FE0400832
:100DF00040006862FFF716FC074605E0C3E0FFF716
:100E000011FCC01B022887D8686A8007F7D42078B5
:100E100004274007002861DA00200190E869C0003B
:100E200008D4E969B8060143E961E9690140012094
:100E30000091019096480168C90511D40168821596
:100E400011430160FFF7EEFB009005E0FFF7EAFBBE
:100E50000099401A642898D88D480068C005F5D5D7
:100E6000A06801280AD0002801D0052811D0286ADE
:100E7000400840002862286AB84302E0286A01213D
:100E800008432862A068002812D0FFF7CBFB00902F
:100E90000AE0286A38432862F0E7FFF7C3FB0099AD
:100EA000411A7C4881426ED8286A8007F5D50DE04A
:100EB000FFF7B8FB009006E0FFF7B4FB0099411A7A
:100EC000744881425FD8286A8007F5D401980028C9
:100ED00004D0E969012000078143E9612078C00658
:100EE00035D5606901280CD0401D686B24D038438B
:100EF0006863686B400840006863FFF793FB074630
:100F000022E0686B38436863686B012108436863BB
:100F1000FFF788FB074604E0FFF784FBC01B0228AD
:100F200031D8686B8007F7D5686BF8218843A169D1
:100F3000C900084368630AE0B8436863F4E7FFF751
:100F400071FBC01B02281ED8686B8007F7D420787D
:100F5000800637D568680007800F032814D06868BA
:100F60000007800F022804D16868C003800F03289F
:100F70000AD0206A0028686B16D030436863FFF7F8
:100F800051FB06460CE062E0686BC0031AD5206A8C
:100F9000012877D116E0FFF745FB801B022856D8C1
:100FA000686BC003F7D50DE0B0436863FFF73AFB09
:100FB000064604E0FFF736FB801B022847D8686B23
:100FC000C003F7D4606A002866D069680907890FF2
:100FD000022942D0012636060228286805D0B043EF
:100FE0002860FFF71FFB044633E0B0432860FFF79B
:100FF00019FB074604E0FFF715FBC01B022826D8A3
:1010000028688001F7D4E86A216B000900010843D1
:10101000E862A16AE06A084369687B22D2039143CF
:1010200008436860286830432860FFF7FBFA0446ED
:1010300004E0FFF7F7FA001B022808D828688001AF
:10104000F7D529E0FFF7EEFA001B022801D90320AB
:10105000FEBD28688001F5D41EE00128F8D068683C
:10106000E96A0322D203A36A02409A420AD109071D
:10107000226B090F914205D10F2189040840E16AD2
:10108000884209D00120FEBD00000100001002408E
:1010900000700040881300000020F4E7094910B5F3
:1010A000401E884201D9012010BD074C6061032118
:1010B000081F00F005FF0020A0610720206100202C
:1010C00010BD0000FFFFFF0000E000E07047704728
:1010D000F0B502462032137F012B1ED00125157773
:1010E0000223537706687468B3687027BC430F689F
:1010F0002743776000680A4CA04205D0AC07A042A5
:1011000002D0084CA04204D180244968A34319436B
:101110008160557700201077F0BD0220F0BD0000FF
:10112000002C01400004004070B5040005D02546A5
:101130002035687F002802D006E0012070BD002025
:101140002877204600F014F802206877211D2068D7
:1011500000F058FD01204034A071A877E877207096
:101160006070A070E070207160716877002070BDC1
:1011700008B500680A49884210D10A4882690121ED
:1011800089040A4382618069002208400090114668
:101190001620FFF723FC1620FFF714FC08BD000003
:1011A0000048014000100240014620314A7F012AD8
:1011B00001D00120704702224A770268D3680121DA
:1011C0000B43D3600068094A904205D08A079042D9
:1011D00002D0074A904204D182685207520F062A71
:1011E00002D002680A43026000207047002C0140D0
:1011F000000400400168CA6852085200CA600168D1
:101200000A6A084B1A4207D10A6A9B101A4203D194
:101210000A68520852000A600121203041770020FC
:101220007047000011110000F8B50D46040005D00C
:1012300026462036707F002802D006E00120F8BD47
:1012400000203077204600F043F8022070772068B5
:1012500081681C4A11408160211D206800F0D2FC89
:10126000226890689369116A2F680743BC46164844
:10127000AF6903403F021F43A868144B3843EF692E
:1012800018403F020743EB6828693B432F6A00017F
:101290003F0338431843AA2399436B686D69674637
:1012A0002D010D432B4397602168886120680362FC
:1012B00001204034A071B077F077A070E0707077B3
:1012C0000020F8BDF8BFFFFFFCFCFFFF0303FFFF9A
:1012D00010B586B0044614216846FEF785FF114913
:1012E000206888421BD11048C26902210A43C261AA
:1012F000C2690A40059243690A0413434361406985
:10130000019110400590C020009001210020039021
:101310000291049109206946C006FFF7B7F806B0AC
:1013200010BD00000004004000100240F0B502466D
:101330002032967F0446D57F40308778C3780029D5
:1013400004D004290DD0012E19D112E0012E16D19E
:10135000012F14D102219177817001220021206890
:101360001CE0012D0BD1012B09D10221D177C170D5
:1013700011E0012D03D1012F01D1012B01D001205A
:10138000F0BD02219177D1778170C17001220021D7
:10139000206800F079FC01220421206800F074FC30
:1013A000206801680122114301600020F0BD7047F0
:1013B00070B50446006801690025C9438907002902
:1013C00015DBC168C943890711D4E91E01610120F9
:1013D0002077206880698007204602D0FFF7E7FF6A
:1013E00004E000F0BDF8204600F05AF925772068A7
:1013F0000169C943490717D4C168C943490713D4D0
:101400000421C9430161022020772068806980059A
:10141000800F204602D0FFF7CAFF04E000F0A0F8DA
:10142000204600F03DF9257720680169C943090786
:1014300016D4C168C943090712D40821C943016100
:10144000042020772068C0698007204602D0FFF77B
:10145000AEFF04E000F084F8204600F021F9257783
:1014600020680169C943C90617D4C168C943C906C0
:1014700013D41021C9430161082020772068C06976
:101480008005800F204602D0FFF791FF04E000F0B6
:1014900067F8204600F004F9257720680169C94300
:1014A000C90708D1C168C943C90704D1891E0161B0
:1014B000204600F047F920680169C943090609D4AC
:1014C000C168C943090605D48021C943016120468A
:1014D000FFF7FCFD20680169C943490609D4C168CA
:1014E000C943490605D44021C9430161204600F0A3
:1014F0004FF920680169C943890609D4C168C94305
:10150000890605D42021C94301612046FFF7DFFD8C
:1015100070BD000010B586B0044614216846FEF781
:1015200063FE012120688907884214D10B48426973
:1015300049130A4342614069084005900320009026
:101540000020022102900390019104910920694634
:10155000C006FEF79BFF06B010BD00000010024061
:101560007047F8B5064604462036307F00270D4602
:1015700001280ED001203077002A0CD0042A1BD07D
:10158000082A2FD00C2A3ED0012700203077384679
:10159000F8BD0220F8BD206800F084FB2068816956
:1015A0000822114381612068826904218A43826193
:1015B000206881692A6912E0206800F0AFFB20688A
:1015C00082690121C9020A4382612068816901227E
:1015D000920291438161206881692A691202114354
:1015E0008161D2E7206800F0D3FB2068C16908223E
:1015F0001143C1612068C26904218A43C261206825
:10160000C1692A6912E0206800F0FEFB2068C16908
:101610000122D2021143C1612068C26901218902FD
:101620008A43C2612068C1692A6912021143C161FB
:10163000ABE770B5040005D025462035687F00284B
:1016400002D006E0012070BD00202877204600F07F
:1016500015F802206877211D206800F0D3FA0120D8
:101660004034A071A877E87720706070A070E070B7
:10167000207160716877002070BD000008B50068B7
:1016800001218907884207D10448C1690122114319
:10169000C161C0691040009008BD00000010024008
:1016A0007047000010B504460222203000290AD0FD
:1016B00004290DD02046403008290ED04378012B54
:1016C00010D0012010BD837F012BFAD182770AE070
:1016D000C37F012BF5D1C27705E00378012BF0D150
:1016E000027000E042700122206800F0CDFA114A39
:1016F0002068904205D01049884202D00F498842A4
:1017000004D1416C0123DB031943416420680121AA
:10171000904205D08A07904202D0094A904204D1F3
:1017200082685207520F062A02D002680A430260FA
:10173000002010BD002C0140004401400048014041
:101740000004004010B50E480068406A00B200F086
:1017500097FF0C49002807D07D22D2000B68101A91
:1017600058630868826310BD0A68002050630968E6
:1017700088630548FFF73EFD04490120487010BD0D
:1017800000010020B8000020480100201C000020BB
:101790007047FEE701688A69D243920701D40022AC
:1017A0008A6200688169C943C90703D0816901223F
:1017B0001143816170470000F7B5044600680F4689
:1017C0008169C943C90636D44168890104D4416896
:1017D00001229203114341600026254640352068CE
:1017E0008069C043800612D5781CF8D0FEF71AFF36
:1017F0000299401AB84201D8002FF0D1616C202024
:10180000014361646870AE702E700120FEBD2168D6
:101810001020C86120682027C7612046FFF7BAFF63
:1018200020684168054A11404160606C042108430A
:1018300060646F70E7E70020FEBD000000E800FE76
:10184000F8B50446164615481D46DAB2C3020090A4
:10185000079F204600F024F83A462046069900F0FB
:1018600080F8002818D12846F5B2012809D021684F
:10187000300A88623A462046069900F072F800283D
:101880000AD1206885620097002280212046069BAD
:1018900000F01AF8002800D00120F8BD00200080D8
:1018A000F0B50668059C7568064F600D38438543A2
:1018B0008805800D110408431843204305437560D3
:1018C000F0BD0000FF63FF03F8B51D4617460E4646
:1018D000044609E0681C07D0FEF7A4FE0699401AEA
:1018E000A8420BD8002D09D0206881693046884372
:1018F0000FD00020B842EDD00020F8BD616C202050
:1019000001436164403460700020A07020700120A9
:10191000F8BD0120EEE770B516460D4604460FE00F
:10192000324629462046FFF747FF002801D0012014
:1019300070BDFEF777FE801BA84208D8002D06D0A8
:1019400020688069C0438006EAD4002070BD616CC5
:10195000202001436164403460700020A07020703A
:10196000E5E770B516460D46044611E032462946B5
:101970002046FFF721FF002801D0012070BD681C20
:1019800006D0FEF74FFE801BA84208D8002D06D0D7
:1019900020688069C0438007E8D4002070BD616C76
:1019A000202001436164403460700020A0702070EA
:1019B000E3E7000000B587B014216846FEF714FC89
:1019C0000A484269012149040A43426140690840CA
:1019D00005903C20009000200190012002900920F9
:1019E0006946C006FEF752FD07B000BD0010024078
:1019F00010B513481149016012494160002181600E
:101A00000161416181610122C161C2600162FEF731
:101A100059FE002801D0FEF725FD00210848FEF7F9
:101A200007FE002801D0FEF71DFD00210448FEF747
:101A300024FE002801D0FEF715FD10BD0054004023
:101A40006C0000200B02000010B50A480849016034
:101A50002F214160002181600161074A4161C2601C
:101A60008161FFF761FB002801D0FEF7FBFC10BD90
:101A700000480140480100201027000010B58AB03E
:101A8000002407941C2168460894FEF7ADFB012151
:101A90001A48890701602F21846041600461184958
:101AA0008461C160FFF7C5FD002801D0FEF7DAFCB4
:101AB000079407A911480894FFF70AFB002801D0F2
:101AC000FEF7D0FC60200090019402940022694649
:101AD00004940A48FFF745FD002801D0FEF7C2FC38
:101AE000042269460548FFF73CFD002801D0FEF7B7
:101AF000B9FC0248FFF70EFD0AB010BDB800002087
:101B0000E703000010B58CB024216846FEF76CFB9B
:101B100000241449144809940A9412C00460846093
:101B20001249046141600320009001200194029059
:101B300003940690049405940794694608940A480F
:101B4000FFF772FB002801D0FEF78CFC099409A96D
:101B500005480A94FFF7BCFA002801D0FEF782FC82
:101B60000CB010BD0004004000010020FFFF000089
:101B7000FEE77047704710B5FEF7D6FE10BD30B5D2
:101B800097B034216846FEF72FFB00250D950E9582
:101B90000F95182111A81095FEF726FB02240120AD
:101BA00003901020099404900094C0020A90400110
:101BB0000B900C956846FFF76FF8002801D072B6BD
:101BC000FEE707200DA931C101210DA81095FEF7F0
:101BD0008FFF002801D072B6FEE7202011901495E7
:101BE00011A8FEF7FFFE002801D072B6FEE717B07D
:101BF00030BD704710B50248FFF7DAFB10BD00009A
:101C000048010020F0B502681A4B0124A4071A4DC0
:101C1000984203D0A04201D0A84203D17026B2431B
:101C20004E683243154E164F98420AD0A04208D053
:101C3000A84206D0134CA04203D0B04201D0B84213
:101C400004D103242402A243CC6822438024A2436B
:101C50004C69224302608A68C2620A6882629842C2
:101C600003D0B04201D0B84201D10969016301211A
:101C70004161F0BD002C01400004004000440140DF
:101C8000004801400020004010B5CB06DB0E0121CA
:101C9000046A99408C430462016A9A4011430162CC
:101CA00010BD0000F0B5026A520852000262056AD7
:101CB000436882697024A24392080C68920014431E
:101CC000022295438A68134E2A43114DA84204D03C
:101CD000B04202D0104FB84206D10827BA43CF68AD
:101CE0001743042297433A46A84204D0B04202D098
:101CF000094DA84206D103252D02AB434D691D4372
:101D00008B692B4343608461496841630262F0BD83
:101D1000002C0140004401400048014070B5026AB7
:101D200010239A430262046A4368826973252D0274
:101D3000AA430D682D021543202294438A6812019C
:101D40002243104CA04208D11446CA688026B443EE
:101D5000120122434024A24305E00B4CA04202D0D2
:101D60000A4CA04208D10324A402A3434C69A40056
:101D70001C438B699B0023434360856149688163F1
:101D8000026270BD002C0140004401400048014047
:101D900070B5026AFF2301339A430262046A436802
:101DA000C2697025AA4392080D689200154301226A
:101DB000520294438A6812022243104CA04207D177
:101DC000C414A243CC68240222430615B24305E0A2
:101DD0000B4CA04202D00B4CA04208D10324240398
:101DE000A3434C6924011C438B691B0123434360BB
:101DF000C5614968C163026270BD0000002C0140EA
:101E0000004401400048014030B5026A01231B0331
:101E10009A430262056A4268C36973242402A34399
:101E20000C6824021C4301235B039D438B681B0346
:101E30002B430A4DA84205D0094DA84202D0094DB6
:101E4000A84205D10125AD03AA434D69AD012A433E
:101E50004260C46149680164036230BD002C0140E6
:101E600000440140004801400FB410B504A9074BDD
:101E700002AA039800F056F8044602A9002000F0D8
:101E8000F9F9204610BC08BC04B0184775220008B8
:101E9000F8B5040C8BB2264682B25E430D0C104698
:101EA000370C5843360480190021794116466E4399
:101EB000370C36048019794126466E438919F8BDDE
:101EC0008307FF22DB0E9A408907090E99400028FC
:101ED00008DB830809489B001B18186890430843D7
:101EE000186070470007000F0838830804489B00FB
:101EF0001B18D86990430843D861704700E400E09C
:101F000000ED00E002E008C8121F08C1002AFAD163
:101F100070477047002001E001C1121F002AFBD169
:101F200070470000FFB58FB00546002606E0252863
:101F30000AD0129A119990476D1C761C28780028B7
:101F4000F5D1304613B0F0BD002402940121B54A0A
:101F5000009400E004436D1C2B780846203B984019
:101F60001042F7D128782A280ED00222287801467C
:101F70003039092916D802990A23594330394018B3
:101F800014436D1C0290F1E7109802C80291109062
:101F9000002904DA01204003044348420290022051
:101FA00004436D1C28782E2817D104200443687838
:101FB0006D1C2A280CD110986D1C02C8009110903D
:101FC0000BE000990A225143303940186D1C0090F3
:101FD0002878014630390929F3D928786C2810D09F
:101FE00006DC4C281AD068280ED06A2817D104E0E5
:101FF000742813D07A2812D110E001204005044340
:102000000CE00121090501E0032109050C43697871
:10201000814203D10120000524186D1C6D1C287815
:10202000692874D006DC00288BD0632827D0642868
:1020300006D16CE06E2808D073282CD0752878D093
:10204000129A11999047761C5FE06002400F0228B7
:1020500009D003280DD00428109801680DD00E6017
:10206000001D109051E01098F21701680E604A6050
:10207000F6E7109801680E80F2E70E70F0E710980E
:102080006A4601781173001D10900020507303A858
:102090000190012005E0109802C8019110900020E5
:1020A000C04361070CD5002700E07F1C00998F42D8
:1020B0000FDA8742F9DB0199C95D0029F5D108E003
:1020C000002700E07F1C8742FCDB0199C95D0029E5
:1020D000F8D102982146C01B0290129B119A00F081
:1020E000B3F88019C61907E0019801990078491CD6
:1020F0000191129A119990477F1EF5D22146129BA9
:10210000119A029800F090F886196D1C16E70A20C3
:102110000190109901C910916102490F032900D162
:1021200000B2042900D140B2002803DA40422D2138
:1021300003E00DE0210504D52B216A46117301212E
:1021400003E0E10711D02021F7E70CAF0C9114E078
:102150000A200190109901C910916102490F0329C9
:1021600000D180B2042900D1C0B20021EDE701996D
:10217000FDF7DCFF30317F1E39700028F7D104A84D
:10218000C01B20300190600704D501200004844367
:10219000009801E0012000900199884201DD401A79
:1021A00000E00020411800900C9809180298401A8D
:1021B0000290E00306D42146129B119A029800F087
:1021C00043F8861900200D9008E003A9085C129AD4
:1021D000119990470D98401C761C0D900C998842DF
:1021E000F3DBE0030CD52146129B119A029800F014
:1021F0002BF8861904E0129A302011999047761C2A
:102200000099481E00900029F5DC05E03878129A04
:102210007F1C11999047761C0199481E0190002956
:10222000F4DC6BE709280100F8B5044600251E46DA
:102230001746880404D405E039462020B0476D1CB9
:10224000641EF9D52846F8BDFFB50446002581B0C7
:102250001E46C80301D5302700E02027880404D596
:1022600005E038460399B0476D1C641EF9D5284631
:1022700005B0F0BD0A68531C0B6010707047000079
:1022800010B5194A117800290CD0012901D0022972
:102290001CD115490228898819D0FF202D30814290
:1022A0001DD81AE010490228498803D0642909D9A9
:1022B000643908E07D200001814201D2643102E0EE
:1022C000014600E06421518000F0AEFA10BD1920F3
:1022D0004001814201D2323102E0014600E0323950
:1022E000918000F087FA10BD1C00002088B0FEF736
:1022F00023FBFFF744FCFFF75DFBFFF779FBFFF7DC
:10230000BDFBFFF7FFFBFFF79FFB514800F0DCF838
:102310004F4800F0B5F84FA3002208214C4800F0C8
:1023200045F9504C00262068466320688663314694
:102330002046FFF7B7F904212046FFF7B3F904213F
:102340004948FEF7F3FF19237F205B01474A4849BC
:10235000C005009600F076F9002700F0F5F9454D2C
:1023600000F0DAF9012808D0022812D0042810D091
:10237000082817D0002855D055E0002F53D12878D1
:102380000A270321401CFDF7D1FE297000F0DCF97B
:1023900049E0002F01D0072F01D9FFF771FF7F1C03
:1023A000FFB240E02878002804D0012814D0022889
:1023B00027D049E0002F39D16878012836D12A4842
:1023C0006E7000680A274662688800B200F050F913
:1023D0002948FEF7E9FE26E0A9887D20C000226892
:1023E000411A51632168886302E00A20FEF73CF835
:1023F00000F092F90828F8D02068466320688663C8
:1024000011E07D202168C0004863A988401A216836
:10241000886302E00A20FEF727F800F07DF908281B
:10242000F8D0E9E70027287800280DD10E48006889
:10243000406A12A102B26846FFF716FD6B460622FB
:102440004821034800F0B2F86420FEF70DF887E752
:102450006C000020736F6C6465722070617374652A
:1024600020763100B8000020000100209A99193F21
:10247000CDCC4C3D1C0000204801002025356400D7
:10248000F8B5064600242046B030C1B2304600F010
:10249000B9F805460021304600F0B4F8451910217E
:1024A000304600F0AFF84019C7B200250021304691
:1024B00000F0B8F86D1CEDB2802DF7D3641CE4B2C7
:1024C000082CE0D33846F8BD70B50646FF20F5303D
:1024D000FDF7CAFF074D0024295D304600F092F851
:1024E000002801D0012070BD641CE4B21B2CF3D382
:1024F000002070BD00000020FFB581B0203B029895
:102500001546DEB27F2803D90020951CEDB202905B
:1025100001462A46019800F063F8002437010E4E68
:102520003819315C019800F07DF8641CE4B2082C85
:10253000F6D36D1CEAB20299019800F051F800241C
:1025400038198019017A019800F06CF8641CE4B223
:10255000082CF5D305B0F0BD5C280008FFB50F4688
:1025600011495801451881B016463946019800F0C6
:1025700037F80024295D019800F054F8641CE4B297
:10258000102CF7D3761CF2B23946019800F028F8E7
:102590001024295D019800F045F8641CE4B2202C59
:1025A000F7D305B0F0BD00004C2E0008FFB581B098
:1025B0001F4616460C4600250DE03246214601987E
:1025C000FFF79AFF0834E4B2782C02D90024B61C35
:1025D000F6B26D1CEDB27B5D002BEED105B0F0BD07
:1025E00070B50C46B0320546D1B200F00BF82109A7
:1025F0002846103100F006F82107090F284600F0A0
:1026000001F870BD03B583B0FF230133012204A993
:10261000029301920091134600227821FEF7ACF854
:1026200005B000BD03B583B0FF230133012204A927
:10263000029301920091134640227821FEF79CF804
:1026400005B000BD30B5054C039D07C400202080B7
:10265000E380258100F004F830BD00003400002044
:1026600002480021C181018270470000340000202F
:1026700000B502498881FFF7F3FF00BD3400002058
:10268000F8B5244CA189081A05B2002D01DC002000
:10269000F8BDE089401900B2E0810646208A258213
:1026A000281A00B2FDF741FEA168FDF701FE0746BA
:1026B0003046FDF73AFE6168FDF7FAFD064628460A
:1026C000FDF733FE2168FDF7F3FD3146FDF797FD79
:1026D0003946FDF794FD05461220205EFDF725FEE4
:1026E0002946FDF747FE02D21220205E09E01420A1
:1026F000205EFDF71AFE2946FDF746FE04D214209F
:10270000205EFDF712FE05462846FDF719FE00B2D1
:10271000F8BD00003400002000200921C9060A6924
:10272000D20600D401200A69120701D40222104304
:102730000A69520701D4042210430969890601D4A9
:10274000082108437047000010B52648007800288B
:1027500024D001283DD002281FD1062302222021A7
:102760002148FFF7FBFE0723022230211E48FFF716
:10277000F5FE02231A4640211B48FFF7EFFE032314
:10278000022250211848FFF7E9FE00F033F817A3A2
:10279000062248211448FFF709FF10BD002302223A
:1027A00020211148FFF7DAFE0123022230210E48D2
:1027B000FFF7D4FE02231A4640210B48FFF7CEFE56
:1027C0000323022250210848FFF7C8FE00F02CF82E
:1027D00010BD0423022220210348FFF7BFFE05237A
:1027E000C2E700001C0000206C00002020202020F8
:1027F0002000000010B5064806A182880848FFF7AF
:1028000033FB074B042210210648FFF7CFFE10BD13
:102810001C0000202073706565643A202534640034
:102820005C0000206C00002010B5064806A142881C
:102830000848FFF719FB074B042210210648FFF751
:10284000B5FE10BD1C0000207461726765743A20EB
:10285000253464004C0000206C00002000000000C3
:10286000000000000000000000000000000000F870
:1028700000000000000000333000000000100C06D3
:10288000100C0600000000000000000040C078406E
:10289000C0784000043F04043F040400007088FC3A
:1028A00008300000001820FF211E0000F008F00092
:1028B000E018000000211C031E211E0000F0088803
:1028C000700000001E2123241927211010160E006D
:1028D000000000000000000000000000000000E018
:1028E000180402000000000718204000000204182D
:1028F000E00000000040201807000000404080F089
:10290000804040000202010F01020200000000F0BE
:10291000000000000101011F010101000000000092
:102920000000000080B07000000000000000000007
:102930000000000000010101010101010000000090
:102940000000000000303000000000000000000027
:1029500080601804006018060100000000E0100804
:102960000810E000000F102020100F00001010F8D9
:10297000000000000020203F202000000070080818
:102980000888700000302824222130000030088898
:10299000884830000018202020110E000000C020C0
:1029A00010F8000000070424243F240000F80888E1
:1029B000880808000019212020110E0000E010886E
:1029C00088180000000F112020110E0000380808A0
:1029D000C83808000000003F0000000000708808B0
:1029E00008887000001C222121221C0000E0100831
:1029F0000810E0000000312222110F00000000C08A
:102A0000C000000000000030300000000000008026
:102A10000000000000008060000000000000804016
:102A2000201008000001020408102000404040402F
:102A30004040400004040404040404000008102082
:102A400040800000002010080402010000704808C7
:102A50000808F0000000003036010000C030C8282F
:102A6000E810E0000718272423140B000000C038EA
:102A7000E0000000203C23020227382008F8888864
:102A800088700000203F202020110E00C030080870
:102A900008083800071820202010080008F8080847
:102AA0000810E000203F202020100F0008F8888840
:102AB000E8081000203F20202320180008F888880C
:102AC000E8081000203F200003000000C030080884
:102AD0000838000007182020221E020008F808000D
:102AE0000008F808203F210101213F20000808F8D4
:102AF000080800000020203F2020000000000808F7
:102B0000F8080800C08080807F00000008F888C0B6
:102B100028180800203F20012638200008F8080067
:102B200000000000203F20202020300008F8F8009E
:102B3000F8F80800203F003F003F200008F830C0B0
:102B40000008F808203F200007183F00E0100808A0
:102B50000810E0000F10202020100F0008F80808CF
:102B60000808F000203F210101010000E0100808E2
:102B70000810E0000F18242438504F0008F8888807
:102B800088887000203F2000030C302000708808E7
:102B9000080838000038202121221C00180808F8F5
:102BA000080818000000203F2000000008F8080076
:102BB0000008F808001F202020201F000878880047
:102BC00000C83808000007380E010000F80800F8B7
:102BD0000008F800033C0700073C03000818688061
:102BE0008068180820302C03032C30200838C800D7
:102BF000C83808000000203F200000001008080826
:102C0000C83808002038262120201800000000FEC7
:102C1000020202000000007F40404000000C30C073
:102C200000000000000000010638C000000202029F
:102C3000FE000000004040407F0000000000040251
:102C4000020204000000000000000000000000007C
:102C5000000000008080808080808080000202046C
:102C60000000000000000000000000000000808064
:102C7000808000000019242222223F2008F80080D2
:102C800080000000003F112020110E000000008095
:102C900080800000000E1120202011000000008024
:102CA0008088F800000E112020103F200000808056
:102CB00080800000001F222222221300008080F06A
:102CC000888888180020203F202000000000808095
:102CD00080808000006B94949493600008F80080DA
:102CE00080800000203F210000203F200080989835
:102CF000000000000020203F202000000000008095
:102D00009898000000C08080807F000008F80000D4
:102D100080808000203F24022D302000000808F829
:102D2000000000000020203F2020000080808080E4
:102D300080808000203F20003F20003F8080008076
:102D400080800000203F210000203F200000808084
:102D500080800000001F202020201F008080008035
:102D60008000000080FFA12020110E0000000080E4
:102D700080808000000E112020A0FF8080808000D5
:102D80008080800020203F21200001000000808002
:102D9000808080000033242424241900008080E0F7
:102DA000808000000000001F2020000080800000C4
:102DB00000808000001F202020103F2080808000A5
:102DC0000080808000010E300806010080800080B5
:102DD000008080800F300C030C300F0000808000DA
:102DE000808080000020312E0E3120008080800005
:102DF0000080808080818E701806010000808080B5
:102E0000808080000021302C222130000000000052
:102E1000807C020200000000003F404000000000F3
:102E2000FF00000000000000FF0000000002027C24
:102E3000800000000040403F00000000000601014B
:102E40000202040400000000000000000000C04076
:102E500040407F48484848C8080800008040370480
:102E6000041464041464040710E000004044C444E3
:102E70004444401010FF101010F00000103C1310DC
:102E800014B840300E014080403F00001010D0FFC9
:102E90009014E4AFA4A4A4AFE4040000040300FF72
:102EA00000894B2A1A0E1A2A4B8880001010909025
:102EB0009090901010FF101011161000002060204C
:102EC0003F10101000030C102040F800404042CC8E
:102ED000000444645C47F444444404000040201F60
:102EE0002044444444447F44444444002030AC6380
:102EF00020182024A4243FA424A4600022672212C6
:102F00001212888A4C29180F1828C8000000FE02E7
:102F100002F2121212F20202FE00000000007F20F4
:102F200020272424242720207F000000404042CC7A
:102F30000000FF4949C949497F8000000040201F27
:102F400020405F4844404142455840000000000096
:102F50000000000001020304060708097C2F000896
:102F60000000002034000000041F0008B02F0008FB
:102F7000340000205C050000141F0008AE00104063
:102F8000B081FFA0A6A83FC0D300D580D805D9F155
:102F9000DA12D8308D14AF000001C800BC02000066
:102FA00001000000040000000000000000127A0090
:04000005080000C12E
:00000001FF
